{
  "contractName": "HelloWorld",
  "abi": [
    {
      "inputs": [],
      "payable": false,
      "stateMutability": "nonpayable",
      "type": "constructor"
    },
    {
      "constant": false,
      "inputs": [
        {
          "name": "_message",
          "type": "string"
        }
      ],
      "name": "setMsg",
      "outputs": [],
      "payable": false,
      "stateMutability": "nonpayable",
      "type": "function"
    },
    {
      "constant": true,
      "inputs": [],
      "name": "getMsg",
      "outputs": [
        {
          "name": "",
          "type": "string"
        }
      ],
      "payable": false,
      "stateMutability": "view",
      "type": "function"
    }
  ],
  "bytecode": "0x608060405234801561001057600080fd5b5060408051808201909152600b8082527f68656c6c6f20776f726c6400000000000000000000000000000000000000000060209092019182526100559160009161005b565b506100f6565b828054600181600116156101000203166002900490600052602060002090601f016020900481019282601f1061009c57805160ff19168380011785556100c9565b828001600101855582156100c9579182015b828111156100c95782518255916020019190600101906100ae565b506100d59291506100d9565b5090565b6100f391905b808211156100d557600081556001016100df565b90565b6102a7806101056000396000f30060806040526004361061004b5763ffffffff7c0100000000000000000000000000000000000000000000000000000000600035041663b5fdeb238114610050578063c4784fd4146100da575b600080fd5b34801561005c57600080fd5b50610065610135565b6040805160208082528351818301528351919283929083019185019080838360005b8381101561009f578181015183820152602001610087565b50505050905090810190601f1680156100cc5780820380516001836020036101000a031916815260200191505b509250505060405180910390f35b3480156100e657600080fd5b506040805160206004803580820135601f81018490048402850184019095528484526101339436949293602493928401919081908401838280828437509497506101cc9650505050505050565b005b60008054604080516020601f60026000196101006001881615020190951694909404938401819004810282018101909252828152606093909290918301828280156101c15780601f10610196576101008083540402835291602001916101c1565b820191906000526020600020905b8154815290600101906020018083116101a457829003601f168201915b505050505090505b90565b80516101df9060009060208401906101e3565b5050565b828054600181600116156101000203166002900490600052602060002090601f016020900481019282601f1061022457805160ff1916838001178555610251565b82800160010185558215610251579182015b82811115610251578251825591602001919060010190610236565b5061025d929150610261565b5090565b6101c991905b8082111561025d57600081556001016102675600a165627a7a723058204161ecddafb562c12c51ea443092ed692904a07561528f170c86789fae83b1710029",
  "source": "pragma solidity ^0.4.23;\n\ncontract HelloWorld {\n    string message;\n\n    function HelloWorld() public {\n        message = \"hello world\";\n    }\n\n    function setMsg(string _message) public {\n        message = _message;\n    }\n\n    function getMsg() public view returns(string) {\n        return message;        \n    }\n}",
  "sourcePath": "/Users/pool/Documents/git/study_solidity/projects/truffle_hello/contracts/HelloWorld.sol",
  "compiler": {
    "name": "solc",
    "version": "0.4.24+commit.e67f0147.Emscripten.clang"
  },
  "schemaVersion": "2.0.1",
  "updatedAt": "2018-09-06T09:15:30.051Z"
}